{
  "contractName": "OluwafemiShobandeToken",
  "abi": [
    {
      "constant": true,
      "inputs": [],
      "name": "name",
      "outputs": [
        {
          "name": "",
          "type": "string"
        }
      ],
      "payable": false,
      "stateMutability": "view",
      "type": "function"
    },
    {
      "constant": true,
      "inputs": [],
      "name": "decimals",
      "outputs": [
        {
          "name": "",
          "type": "uint8"
        }
      ],
      "payable": false,
      "stateMutability": "view",
      "type": "function"
    },
    {
      "constant": true,
      "inputs": [],
      "name": "owner",
      "outputs": [
        {
          "name": "",
          "type": "address"
        }
      ],
      "payable": false,
      "stateMutability": "view",
      "type": "function"
    },
    {
      "constant": true,
      "inputs": [],
      "name": "symbol",
      "outputs": [
        {
          "name": "",
          "type": "string"
        }
      ],
      "payable": false,
      "stateMutability": "view",
      "type": "function"
    },
    {
      "inputs": [],
      "payable": false,
      "stateMutability": "nonpayable",
      "type": "constructor"
    },
    {
      "anonymous": false,
      "inputs": [
        {
          "indexed": true,
          "name": "minter",
          "type": "address"
        }
      ],
      "name": "MinterAdded",
      "type": "event"
    },
    {
      "anonymous": false,
      "inputs": [
        {
          "indexed": true,
          "name": "minter",
          "type": "address"
        },
        {
          "indexed": false,
          "name": "value",
          "type": "uint256"
        }
      ],
      "name": "SupplyIncreased",
      "type": "event"
    },
    {
      "anonymous": false,
      "inputs": [
        {
          "indexed": true,
          "name": "from",
          "type": "address"
        },
        {
          "indexed": true,
          "name": "to",
          "type": "address"
        },
        {
          "indexed": false,
          "name": "value",
          "type": "uint256"
        }
      ],
      "name": "Transfer",
      "type": "event"
    },
    {
      "anonymous": false,
      "inputs": [
        {
          "indexed": true,
          "name": "owner",
          "type": "address"
        },
        {
          "indexed": true,
          "name": "spender",
          "type": "address"
        },
        {
          "indexed": false,
          "name": "value",
          "type": "uint256"
        }
      ],
      "name": "Approval",
      "type": "event"
    },
    {
      "constant": true,
      "inputs": [],
      "name": "totalSupply",
      "outputs": [
        {
          "name": "",
          "type": "uint256"
        }
      ],
      "payable": false,
      "stateMutability": "view",
      "type": "function"
    },
    {
      "constant": true,
      "inputs": [
        {
          "name": "_owner",
          "type": "address"
        }
      ],
      "name": "balanceOf",
      "outputs": [
        {
          "name": "balance",
          "type": "uint256"
        }
      ],
      "payable": false,
      "stateMutability": "view",
      "type": "function"
    },
    {
      "constant": false,
      "inputs": [
        {
          "name": "_to",
          "type": "address"
        },
        {
          "name": "_value",
          "type": "uint256"
        }
      ],
      "name": "transfer",
      "outputs": [
        {
          "name": "success",
          "type": "bool"
        }
      ],
      "payable": false,
      "stateMutability": "nonpayable",
      "type": "function"
    },
    {
      "constant": false,
      "inputs": [
        {
          "name": "_from",
          "type": "address"
        },
        {
          "name": "_to",
          "type": "address"
        },
        {
          "name": "_value",
          "type": "uint256"
        }
      ],
      "name": "transferFrom",
      "outputs": [
        {
          "name": "success",
          "type": "bool"
        }
      ],
      "payable": false,
      "stateMutability": "nonpayable",
      "type": "function"
    },
    {
      "constant": false,
      "inputs": [
        {
          "name": "_spender",
          "type": "address"
        },
        {
          "name": "_value",
          "type": "uint256"
        }
      ],
      "name": "approve",
      "outputs": [
        {
          "name": "success",
          "type": "bool"
        }
      ],
      "payable": false,
      "stateMutability": "nonpayable",
      "type": "function"
    },
    {
      "constant": true,
      "inputs": [
        {
          "name": "_owner",
          "type": "address"
        },
        {
          "name": "_spender",
          "type": "address"
        }
      ],
      "name": "allowance",
      "outputs": [
        {
          "name": "remaining",
          "type": "uint256"
        }
      ],
      "payable": false,
      "stateMutability": "view",
      "type": "function"
    },
    {
      "constant": false,
      "inputs": [
        {
          "name": "_minter",
          "type": "address"
        }
      ],
      "name": "addMinter",
      "outputs": [
        {
          "name": "success",
          "type": "bool"
        }
      ],
      "payable": false,
      "stateMutability": "nonpayable",
      "type": "function"
    },
    {
      "constant": true,
      "inputs": [
        {
          "name": "_minter",
          "type": "address"
        }
      ],
      "name": "isMinter",
      "outputs": [
        {
          "name": "",
          "type": "uint256"
        }
      ],
      "payable": false,
      "stateMutability": "view",
      "type": "function"
    },
    {
      "constant": false,
      "inputs": [
        {
          "name": "_value",
          "type": "uint256"
        }
      ],
      "name": "mint",
      "outputs": [
        {
          "name": "success",
          "type": "bool"
        }
      ],
      "payable": false,
      "stateMutability": "nonpayable",
      "type": "function"
    }
  ],
  "bytecode": "0x60806040526040805190810160405280601681526020017f4f6c75776166656d6953686f62616e6465546f6b656e0000000000000000000081525060019080519060200190620000519291906200015d565b506040805190810160405280600381526020017f4f4c530000000000000000000000000000000000000000000000000000000000815250600290805190602001906200009f9291906200015d565b506012600360006101000a81548160ff021916908360ff160217905550348015620000c957600080fd5b50336000806101000a81548173ffffffffffffffffffffffffffffffffffffffff021916908373ffffffffffffffffffffffffffffffffffffffff1602179055506001600760003373ffffffffffffffffffffffffffffffffffffffff1673ffffffffffffffffffffffffffffffffffffffff1681526020019081526020016000208190555060006006819055506200020c565b828054600181600116156101000203166002900490600052602060002090601f016020900481019282601f10620001a057805160ff1916838001178555620001d1565b82800160010185558215620001d1579182015b82811115620001d0578251825591602001919060010190620001b3565b5b509050620001e09190620001e4565b5090565b6200020991905b8082111562000205576000816000905550600101620001eb565b5090565b90565b61154b806200021c6000396000f3fe6080604052600436106100c5576000357c0100000000000000000000000000000000000000000000000000000000900463ffffffff16806306fdde03146100ca578063095ea7b31461015a57806318160ddd146101cd57806323b872dd146101f8578063313ce5671461028b57806370a08231146102bc5780638da5cb5b1461032157806395d89b4114610378578063983b2d5614610408578063a0712d6814610471578063a9059cbb146104c4578063aa271e1a14610537578063dd62ed3e1461059c575b600080fd5b3480156100d657600080fd5b506100df610621565b6040518080602001828103825283818151815260200191508051906020019080838360005b8381101561011f578082015181840152602081019050610104565b50505050905090810190601f16801561014c5780820380516001836020036101000a031916815260200191505b509250505060405180910390f35b34801561016657600080fd5b506101b36004803603604081101561017d57600080fd5b81019080803573ffffffffffffffffffffffffffffffffffffffff169060200190929190803590602001909291905050506106bf565b604051808215151515815260200191505060405180910390f35b3480156101d957600080fd5b506101e261087b565b6040518082815260200191505060405180910390f35b34801561020457600080fd5b506102716004803603606081101561021b57600080fd5b81019080803573ffffffffffffffffffffffffffffffffffffffff169060200190929190803573ffffffffffffffffffffffffffffffffffffffff16906020019092919080359060200190929190505050610885565b604051808215151515815260200191505060405180910390f35b34801561029757600080fd5b506102a0610c6a565b604051808260ff1660ff16815260200191505060405180910390f35b3480156102c857600080fd5b5061030b600480360360208110156102df57600080fd5b81019080803573ffffffffffffffffffffffffffffffffffffffff169060200190929190505050610c7d565b6040518082815260200191505060405180910390f35b34801561032d57600080fd5b50610336610cc6565b604051808273ffffffffffffffffffffffffffffffffffffffff1673ffffffffffffffffffffffffffffffffffffffff16815260200191505060405180910390f35b34801561038457600080fd5b5061038d610ceb565b6040518080602001828103825283818151815260200191508051906020019080838360005b838110156103cd5780820151818401526020810190506103b2565b50505050905090810190601f1680156103fa5780820380516001836020036101000a031916815260200191505b509250505060405180910390f35b34801561041457600080fd5b506104576004803603602081101561042b57600080fd5b81019080803573ffffffffffffffffffffffffffffffffffffffff169060200190929190505050610d89565b604051808215151515815260200191505060405180910390f35b34801561047d57600080fd5b506104aa6004803603602081101561049457600080fd5b8101908080359060200190929190505050610f06565b604051808215151515815260200191505060405180910390f35b3480156104d057600080fd5b5061051d600480360360408110156104e757600080fd5b81019080803573ffffffffffffffffffffffffffffffffffffffff169060200190929190803590602001909291905050506110ff565b604051808215151515815260200191505060405180910390f35b34801561054357600080fd5b506105866004803603602081101561055a57600080fd5b81019080803573ffffffffffffffffffffffffffffffffffffffff169060200190929190505050611365565b6040518082815260200191505060405180910390f35b3480156105a857600080fd5b5061060b600480360360408110156105bf57600080fd5b81019080803573ffffffffffffffffffffffffffffffffffffffff169060200190929190803573ffffffffffffffffffffffffffffffffffffffff169060200190929190505050611498565b6040518082815260200191505060405180910390f35b60018054600181600116156101000203166002900480601f0160208091040260200160405190810160405280929190818152602001828054600181600116156101000203166002900480156106b75780601f1061068c576101008083540402835291602001916106b7565b820191906000526020600020905b81548152906001019060200180831161069a57829003601f168201915b505050505081565b60008073ffffffffffffffffffffffffffffffffffffffff168373ffffffffffffffffffffffffffffffffffffffff161415151561078b576040517f08c379a00000000000000000000000000000000000000000000000000000000081526004018080602001828103825260228152602001807f63616e6e6f74206164642061646472657373207a65726f206173207370656e6481526020017f657200000000000000000000000000000000000000000000000000000000000081525060400191505060405180910390fd5b81600560003373ffffffffffffffffffffffffffffffffffffffff1673ffffffffffffffffffffffffffffffffffffffff16815260200190815260200160002060008573ffffffffffffffffffffffffffffffffffffffff1673ffffffffffffffffffffffffffffffffffffffff168152602001908152602001600020819055508273ffffffffffffffffffffffffffffffffffffffff163373ffffffffffffffffffffffffffffffffffffffff167f8c5be1e5ebec7d5bd14f71427d1e84f3dd0314c0f7b2291e5b200ac8c7c3b925846040518082815260200191505060405180910390a36001905092915050565b6000600654905090565b60008073ffffffffffffffffffffffffffffffffffffffff168373ffffffffffffffffffffffffffffffffffffffff161415151561092b576040517f08c379a000000000000000000000000000000000000000000000000000000000815260040180806020018281038252601f8152602001807f63616e6e6f74207472616e7366657220746f2061646472657373207a65726f0081525060200191505060405180910390fd5b600460008573ffffffffffffffffffffffffffffffffffffffff1673ffffffffffffffffffffffffffffffffffffffff1681526020019081526020016000205482111515156109e2576040517f08c379a00000000000000000000000000000000000000000000000000000000081526004018080602001828103825260128152602001807f696e73756666696369656e742066756e6473000000000000000000000000000081525060200191505060405180910390fd5b600560008573ffffffffffffffffffffffffffffffffffffffff1673ffffffffffffffffffffffffffffffffffffffff16815260200190815260200160002060003373ffffffffffffffffffffffffffffffffffffffff1673ffffffffffffffffffffffffffffffffffffffff168152602001908152602001600020548211151515610ad6576040517f08c379a00000000000000000000000000000000000000000000000000000000081526004018080602001828103825260168152602001807f696e73756666696369656e7420616c6c6f77616e63650000000000000000000081525060200191505060405180910390fd5b81600460008673ffffffffffffffffffffffffffffffffffffffff1673ffffffffffffffffffffffffffffffffffffffff1681526020019081526020016000206000828254039250508190555081600460008573ffffffffffffffffffffffffffffffffffffffff1673ffffffffffffffffffffffffffffffffffffffff1681526020019081526020016000206000828254019250508190555081600560008673ffffffffffffffffffffffffffffffffffffffff1673ffffffffffffffffffffffffffffffffffffffff16815260200190815260200160002060003373ffffffffffffffffffffffffffffffffffffffff1673ffffffffffffffffffffffffffffffffffffffff168152602001908152602001600020600082825403925050819055508273ffffffffffffffffffffffffffffffffffffffff168473ffffffffffffffffffffffffffffffffffffffff167fddf252ad1be2c89b69c2b068fc378daa952ba7f163c4a11628f55a4df523b3ef846040518082815260200191505060405180910390a3600190509392505050565b600360009054906101000a900460ff1681565b6000600460008373ffffffffffffffffffffffffffffffffffffffff1673ffffffffffffffffffffffffffffffffffffffff168152602001908152602001600020549050919050565b6000809054906101000a900473ffffffffffffffffffffffffffffffffffffffff1681565b60028054600181600116156101000203166002900480601f016020809104026020016040519081016040528092919081815260200182805460018160011615610100020316600290048015610d815780601f10610d5657610100808354040283529160200191610d81565b820191906000526020600020905b815481529060010190602001808311610d6457829003601f168201915b505050505081565b60008060009054906101000a900473ffffffffffffffffffffffffffffffffffffffff1673ffffffffffffffffffffffffffffffffffffffff163373ffffffffffffffffffffffffffffffffffffffff16141515610e75576040517f08c379a000000000000000000000000000000000000000000000000000000000815260040180806020018281038252602b8152602001807f6f6e6c7920636f6e7472616374206f776e65722063616e20706572666f726d2081526020017f7468697320616374696f6e00000000000000000000000000000000000000000081525060400191505060405180910390fd5b6001600760008473ffffffffffffffffffffffffffffffffffffffff1673ffffffffffffffffffffffffffffffffffffffff168152602001908152602001600020819055508173ffffffffffffffffffffffffffffffffffffffff167f6ae172837ea30b801fbfcdd4108aa1d5bf8ff775444fd70256b44e6bf3dfc3f660405160405180910390a260019050919050565b60006001600760003373ffffffffffffffffffffffffffffffffffffffff1673ffffffffffffffffffffffffffffffffffffffff16815260200190815260200160002054141515610fe5576040517f08c379a00000000000000000000000000000000000000000000000000000000081526004018080602001828103825260248152602001807f6f6e6c79206d696e746572732063616e20706572666f726d207468697320616381526020017f74696f6e0000000000000000000000000000000000000000000000000000000081525060400191505060405180910390fd5b8160066000828254019250508190555081600460003373ffffffffffffffffffffffffffffffffffffffff1673ffffffffffffffffffffffffffffffffffffffff168152602001908152602001600020600082825401925050819055503373ffffffffffffffffffffffffffffffffffffffff167ff5c174d57843e57fea3c649fdde37f015ef08750759cbee88060390566a98797836040518082815260200191505060405180910390a23373ffffffffffffffffffffffffffffffffffffffff16600073ffffffffffffffffffffffffffffffffffffffff167fddf252ad1be2c89b69c2b068fc378daa952ba7f163c4a11628f55a4df523b3ef846040518082815260200191505060405180910390a360019050919050565b60008073ffffffffffffffffffffffffffffffffffffffff168373ffffffffffffffffffffffffffffffffffffffff16141515156111a5576040517f08c379a000000000000000000000000000000000000000000000000000000000815260040180806020018281038252601b8152602001807f63616e6e6f742073656e6420746f2061646472657373207a65726f000000000081525060200191505060405180910390fd5b600460003373ffffffffffffffffffffffffffffffffffffffff1673ffffffffffffffffffffffffffffffffffffffff16815260200190815260200160002054821115151561125c576040517f08c379a00000000000000000000000000000000000000000000000000000000081526004018080602001828103825260128152602001807f696e73756666696369656e742066756e6473000000000000000000000000000081525060200191505060405180910390fd5b81600460003373ffffffffffffffffffffffffffffffffffffffff1673ffffffffffffffffffffffffffffffffffffffff1681526020019081526020016000206000828254039250508190555081600460008573ffffffffffffffffffffffffffffffffffffffff1673ffffffffffffffffffffffffffffffffffffffff168152602001908152602001600020600082825401925050819055508273ffffffffffffffffffffffffffffffffffffffff163373ffffffffffffffffffffffffffffffffffffffff167fddf252ad1be2c89b69c2b068fc378daa952ba7f163c4a11628f55a4df523b3ef846040518082815260200191505060405180910390a36001905092915050565b60008060009054906101000a900473ffffffffffffffffffffffffffffffffffffffff1673ffffffffffffffffffffffffffffffffffffffff163373ffffffffffffffffffffffffffffffffffffffff16141515611451576040517f08c379a000000000000000000000000000000000000000000000000000000000815260040180806020018281038252602b8152602001807f6f6e6c7920636f6e7472616374206f776e65722063616e20706572666f726d2081526020017f7468697320616374696f6e00000000000000000000000000000000000000000081525060400191505060405180910390fd5b600760008373ffffffffffffffffffffffffffffffffffffffff1673ffffffffffffffffffffffffffffffffffffffff168152602001908152602001600020549050919050565b6000600560008473ffffffffffffffffffffffffffffffffffffffff1673ffffffffffffffffffffffffffffffffffffffff16815260200190815260200160002060008373ffffffffffffffffffffffffffffffffffffffff1673ffffffffffffffffffffffffffffffffffffffff1681526020019081526020016000205490509291505056fea165627a7a723058205434b518a6fb5e144641aa70e730e015c684085d5dff900316aadd511df3e0b20029",
  "source": "pragma solidity >=0.4.21 <0.6.0;\n\nimport \"./ERC20.sol\";\n\n/**\n * @title OluwafemiShobandeToken token\n *\n * @dev Implementation of an ERC20 Token\n */\ncontract OluwafemiShobandeToken is ERC20 {\n\n\taddress public owner;\n\n\tstring public name = \"OluwafemiShobandeToken\";\n\tstring public symbol = \"OLS\";\n\tuint8 public decimals = 18;\n\n\tmapping (address => uint256) private _balances;\n\n\tmapping (address => mapping (address => uint256)) private _allowed;\n\n\tuint256 private _totalSupply;\n\n\tmapping (address => uint256) private _minters;\n\n\tevent MinterAdded(address indexed minter);\n\n\tevent SupplyIncreased(address indexed minter, uint256 value);\n\n\n\tconstructor() public {\n\t\towner = msg.sender;\n\t\t_minters[msg.sender] = 1;\n\t\t_totalSupply = 0;\n\t}\n\n\t/**\n\t* @dev Total number of tokens in existence\n\t* @return An uint256 representing the total number of tokens in existence\n\t*/\n\tfunction totalSupply() public view returns (uint256) {\n\t\treturn _totalSupply;\n\t}\n\n\t/**\n\t* @dev Gets the balance of the specified address.\n\t* @param _owner The address to query the balance of.\n\t* @return An uint256 representing the amount owned by the passed address.\n\t*/\n\tfunction balanceOf(address _owner) public view returns (uint256 balance) {\n\t\treturn _balances[_owner];\n\t}\n\n\t/**\n\t* @dev Transfer token for a specified address\n\t* @param _to The address to transfer to.\n\t* @param _value The amount to be transferred.\n\t*/\n\tfunction transfer(address _to, uint256 _value) public returns (bool success) {\n\t\trequire(_to != address(0), \"cannot send to address zero\");\n\t\trequire(_value <= _balances[msg.sender], \"insufficient funds\");\n\n\t\t_balances[msg.sender] -= _value;\n\t\t_balances[_to] += _value;\n\n\t\temit Transfer(msg.sender, _to, _value);\n\t\treturn true;\n\t}\n\n\t/**\n\t * @dev Transfer tokens from one address to another\n\t * @param _from address The address which you want to send tokens from\n\t * @param _to address The address which you want to transfer to\n\t * @param _value uint256 the amount of tokens to be transferred\n\t */\n\tfunction transferFrom(address _from, address _to, uint256 _value) public returns (bool success){\n\t\trequire(_to != address(0), \"cannot transfer to address zero\");\n\t\trequire(_value <= _balances[_from], \"insufficient funds\");\n\t\trequire(_value <= _allowed[_from][msg.sender], \"insufficient allowance\");\n\n\t\t_balances[_from] -= _value;\n\t\t_balances[_to] += _value;\n\t\t_allowed[_from][msg.sender] -= _value;\n\n\t\temit Transfer(_from, _to, _value);\n\t\treturn true;\n\t}\n\n\t/**\n\t * @dev Approve the passed address to spend the specified amount of tokens on behalf of msg.sender.\n\t * @param _spender The address which will spend the funds.\n\t * @param _value The amount of tokens to be spent.\n\t */\n\tfunction approve(address _spender, uint256 _value) public returns (bool success) {\n\t\trequire(_spender != address(0), \"cannot add address zero as spender\");\n\n\t\t_allowed[msg.sender][_spender] = _value;\n\n\t\temit Approval(msg.sender, _spender, _value);\n\t\treturn true;\n\t}\n\n\t/**\n\t * @dev Function to check the amount of tokens that an owner allowed to a spender.\n\t * @param _owner address The address which owns the funds.\n\t * @param _spender address The address which will spend the funds.\n\t * @return A uint256 specifying the amount of tokens still available for the spender.\n\t */\n\tfunction allowance(address _owner, address _spender) public view returns (uint256 remaining) {\n\t\treturn _allowed[_owner][_spender];\n\t}\n\n\t/**\n\t * @dev Throws if called by any account other than the contract owner.\n\t */\n\tmodifier onlyOwner() {\n\t\trequire(msg.sender == owner, \"only contract owner can perform this action\");\n\t\t_;\n\t}\n\n\t/**\n\t * @dev Increases the total supply by minting the specified number of tokens to the minter's account.\n\t * @param _minter The address of the minter to add.\n\t */\n\tfunction addMinter(address _minter) public onlyOwner returns (bool success) {\n\t\t_minters[_minter] = 1;\n\t\temit MinterAdded(_minter);\n\t\treturn true;\n\t}\n\n\t/**\n\t* @dev Check if the specified address has been granted minting rights\n\t* @param _minter The address to check for minting rights\n\t* @return An uint256 of 1 if the specified address is minter or 0 otherwise\n\t */\n\tfunction isMinter(address _minter) public view onlyOwner returns (uint256) {\n\t\treturn _minters[_minter];\n\t}\n\n\t/**\n\t * @dev Throws if called by any account that hasn't been granted minting rights\n\t */\n\tmodifier onlyMinter() {\n\t\trequire(_minters[msg.sender] == 1, \"only minters can perform this action\");\n\t\t_;\n\t}\n\n\t/**\n\t * @dev Increases the total supply by minting the specified number of tokens to the minter's account.\n\t * @param _value The number of tokens to mint.\n\t */\n\tfunction mint(uint256 _value) public onlyMinter returns (bool success) {\n\t\t_totalSupply += _value;\n\t\t_balances[msg.sender] += _value;\n\t\temit SupplyIncreased(msg.sender, _value);\n\t\temit Transfer(address(0), msg.sender, _value);\n\t\treturn true;\n\t}\n}",
  "sourcePath": "/home/oluwafemi/Downloads/ethereum/buycoins-africa/contracts/OluwafemiShobandeToken.sol",
  "compiler": {
    "name": "solc",
    "version": "0.5.0+commit.1d4f565a.Emscripten.clang"
  },
  "schemaVersion": "3.0.9",
  "updatedAt": "2019-06-28T17:19:13.000Z",
  "devdoc": {
    "details": "Implementation of an ERC20 Token",
    "methods": {
      "addMinter(address)": {
        "details": "Increases the total supply by minting the specified number of tokens to the minter's account.",
        "params": {
          "_minter": "The address of the minter to add."
        }
      },
      "allowance(address,address)": {
        "details": "Function to check the amount of tokens that an owner allowed to a spender.",
        "params": {
          "_owner": "address The address which owns the funds.",
          "_spender": "address The address which will spend the funds."
        },
        "return": "A uint256 specifying the amount of tokens still available for the spender."
      },
      "approve(address,uint256)": {
        "details": "Approve the passed address to spend the specified amount of tokens on behalf of msg.sender.",
        "params": {
          "_spender": "The address which will spend the funds.",
          "_value": "The amount of tokens to be spent."
        }
      },
      "balanceOf(address)": {
        "details": "Gets the balance of the specified address.",
        "params": {
          "_owner": "The address to query the balance of."
        },
        "return": "An uint256 representing the amount owned by the passed address."
      },
      "isMinter(address)": {
        "details": "Check if the specified address has been granted minting rights",
        "params": {
          "_minter": "The address to check for minting rights"
        },
        "return": "An uint256 of 1 if the specified address is minter or 0 otherwise"
      },
      "mint(uint256)": {
        "details": "Increases the total supply by minting the specified number of tokens to the minter's account.",
        "params": {
          "_value": "The number of tokens to mint."
        }
      },
      "totalSupply()": {
        "details": "Total number of tokens in existence",
        "return": "An uint256 representing the total number of tokens in existence"
      },
      "transfer(address,uint256)": {
        "details": "Transfer token for a specified address",
        "params": {
          "_to": "The address to transfer to.",
          "_value": "The amount to be transferred."
        }
      },
      "transferFrom(address,address,uint256)": {
        "details": "Transfer tokens from one address to another",
        "params": {
          "_from": "address The address which you want to send tokens from",
          "_to": "address The address which you want to transfer to",
          "_value": "uint256 the amount of tokens to be transferred"
        }
      }
    },
    "title": "OluwafemiShobandeToken token"
  },
  "userdoc": {
    "methods": {}
  }
}